{
  "contractName": "Voting",
  "abi": [
    {
      "inputs": [],
      "stateMutability": "nonpayable",
      "type": "constructor"
    },
    {
      "inputs": [],
      "name": "admin",
      "outputs": [
        {
          "internalType": "address",
          "name": "",
          "type": "address"
        }
      ],
      "stateMutability": "view",
      "type": "function",
      "constant": true
    },
    {
      "inputs": [
        {
          "internalType": "uint256",
          "name": "",
          "type": "uint256"
        }
      ],
      "name": "ballots",
      "outputs": [
        {
          "internalType": "uint256",
          "name": "id",
          "type": "uint256"
        },
        {
          "internalType": "string",
          "name": "name",
          "type": "string"
        },
        {
          "internalType": "uint256",
          "name": "end",
          "type": "uint256"
        }
      ],
      "stateMutability": "view",
      "type": "function",
      "constant": true
    },
    {
      "inputs": [],
      "name": "nextBallotId",
      "outputs": [
        {
          "internalType": "uint256",
          "name": "",
          "type": "uint256"
        }
      ],
      "stateMutability": "view",
      "type": "function",
      "constant": true
    },
    {
      "inputs": [
        {
          "internalType": "address",
          "name": "",
          "type": "address"
        }
      ],
      "name": "voters",
      "outputs": [
        {
          "internalType": "bool",
          "name": "",
          "type": "bool"
        }
      ],
      "stateMutability": "view",
      "type": "function",
      "constant": true
    },
    {
      "inputs": [
        {
          "internalType": "address",
          "name": "",
          "type": "address"
        },
        {
          "internalType": "uint256",
          "name": "",
          "type": "uint256"
        }
      ],
      "name": "votes",
      "outputs": [
        {
          "internalType": "bool",
          "name": "",
          "type": "bool"
        }
      ],
      "stateMutability": "view",
      "type": "function",
      "constant": true
    },
    {
      "inputs": [
        {
          "internalType": "address[]",
          "name": "_voters",
          "type": "address[]"
        }
      ],
      "name": "addVoters",
      "outputs": [],
      "stateMutability": "nonpayable",
      "type": "function"
    },
    {
      "inputs": [
        {
          "internalType": "string",
          "name": "name",
          "type": "string"
        },
        {
          "internalType": "string[]",
          "name": "_choices",
          "type": "string[]"
        },
        {
          "internalType": "uint256",
          "name": "offset",
          "type": "uint256"
        }
      ],
      "name": "createBallot",
      "outputs": [],
      "stateMutability": "nonpayable",
      "type": "function"
    },
    {
      "inputs": [
        {
          "internalType": "uint256",
          "name": "ballotId",
          "type": "uint256"
        },
        {
          "internalType": "uint256",
          "name": "choiceId",
          "type": "uint256"
        }
      ],
      "name": "vote",
      "outputs": [],
      "stateMutability": "nonpayable",
      "type": "function"
    },
    {
      "inputs": [
        {
          "internalType": "uint256",
          "name": "ballotId",
          "type": "uint256"
        }
      ],
      "name": "results",
      "outputs": [
        {
          "components": [
            {
              "internalType": "uint256",
              "name": "id",
              "type": "uint256"
            },
            {
              "internalType": "string",
              "name": "name",
              "type": "string"
            },
            {
              "internalType": "uint256",
              "name": "votes",
              "type": "uint256"
            }
          ],
          "internalType": "struct Voting.Choice[]",
          "name": "",
          "type": "tuple[]"
        }
      ],
      "stateMutability": "view",
      "type": "function",
      "constant": true
    }
  ],
  "bytecode": "0x608060405234801561001057600080fd5b5033600360006101000a81548173ffffffffffffffffffffffffffffffffffffffff021916908373ffffffffffffffffffffffffffffffffffffffff1602179055506115ae806100616000396000f3fe608060405234801561001057600080fd5b50600436106100935760003560e01c80639f2524ee116100665780639f2524ee14610132578063a3ec138d14610162578063b384abef14610192578063dc6bfbb5146101ae578063f851a440146101cc57610093565b80631b0c27da1461009857806320faae8e146100c85780635c632b38146100e45780638203373a14610116575b600080fd5b6100b260048036038101906100ad9190610d95565b6101ea565b6040516100bf9190611128565b60405180910390f35b6100e260048036038101906100dd9190610d16565b61035e565b005b6100fe60048036038101906100f99190610d95565b61056f565b60405161010d93929190611220565b60405180910390f35b610130600480360381019061012b9190610cd1565b610621565b005b61014c60048036038101906101479190610c95565b61077b565b604051610159919061114a565b60405180910390f35b61017c60048036038101906101779190610c6c565b6107aa565b604051610189919061114a565b60405180910390f35b6101ac60048036038101906101a79190610dbe565b6107ca565b005b6101b6610a3a565b6040516101c39190611205565b60405180910390f35b6101d4610a40565b6040516101e1919061110d565b60405180910390f35b60606001600083815260200190815260200160002060030154421015610245576040517f08c379a000000000000000000000000000000000000000000000000000000000815260040161023c906111e5565b60405180910390fd5b60016000838152602001908152602001600020600201805480602002602001604051908101604052809291908181526020016000905b828210156103535783829060005260206000209060030201604051806060016040529081600082015481526020016001820180546102b890611431565b80601f01602080910402602001604051908101604052809291908181526020018280546102e490611431565b80156103315780601f1061030657610100808354040283529160200191610331565b820191906000526020600020905b81548152906001019060200180831161031457829003601f168201915b505050505081526020016002820154815250508152602001906001019061027b565b505050509050919050565b600360009054906101000a900473ffffffffffffffffffffffffffffffffffffffff1673ffffffffffffffffffffffffffffffffffffffff163373ffffffffffffffffffffffffffffffffffffffff16146103ee576040517f08c379a00000000000000000000000000000000000000000000000000000000081526004016103e590611185565b60405180910390fd5b60025460016000600254815260200190815260200160002060000181905550826001600060025481526020019081526020016000206001019080519060200190610439929190610a66565b5080426104469190611351565b6001600060025481526020019081526020016000206003018190555060005b82518110156105515760016000600254815260200190815260200160002060020160405180606001604052808381526020018584815181106104d0577f4e487b7100000000000000000000000000000000000000000000000000000000600052603260045260246000fd5b6020026020010151815260200160008152509080600181540180825580915050600190039060005260206000209060030201600090919091909150600082015181600001556020820151816001019080519060200190610531929190610a66565b50604082015181600201555050808061054990611463565b915050610465565b506002600081548092919061056590611463565b9190505550505050565b600160205280600052604060002060009150905080600001549080600101805461059890611431565b80601f01602080910402602001604051908101604052809291908181526020018280546105c490611431565b80156106115780601f106105e657610100808354040283529160200191610611565b820191906000526020600020905b8154815290600101906020018083116105f457829003601f168201915b5050505050908060030154905083565b600360009054906101000a900473ffffffffffffffffffffffffffffffffffffffff1673ffffffffffffffffffffffffffffffffffffffff163373ffffffffffffffffffffffffffffffffffffffff16146106b1576040517f08c379a00000000000000000000000000000000000000000000000000000000081526004016106a890611185565b60405180910390fd5b60005b828290508110156107765760016000808585858181106106fd577f4e487b7100000000000000000000000000000000000000000000000000000000600052603260045260246000fd5b90506020020160208101906107129190610c6c565b73ffffffffffffffffffffffffffffffffffffffff1673ffffffffffffffffffffffffffffffffffffffff16815260200190815260200160002060006101000a81548160ff021916908315150217905550808061076e90611463565b9150506106b4565b505050565b60046020528160005260406000206020528060005260406000206000915091509054906101000a900460ff1681565b60006020528060005260406000206000915054906101000a900460ff1681565b600115156000803373ffffffffffffffffffffffffffffffffffffffff1673ffffffffffffffffffffffffffffffffffffffff16815260200190815260200160002060009054906101000a900460ff1615151461085c576040517f08c379a0000000000000000000000000000000000000000000000000000000008152600401610853906111c5565b60405180910390fd5b60001515600460003373ffffffffffffffffffffffffffffffffffffffff1673ffffffffffffffffffffffffffffffffffffffff168152602001908152602001600020600084815260200190815260200160002060009054906101000a900460ff16151514610900576040517f08c379a00000000000000000000000000000000000000000000000000000000081526004016108f7906111a5565b60405180910390fd5b60016000838152602001908152602001600020600301544210610958576040517f08c379a000000000000000000000000000000000000000000000000000000000815260040161094f90611165565b60405180910390fd5b6001600460003373ffffffffffffffffffffffffffffffffffffffff1673ffffffffffffffffffffffffffffffffffffffff168152602001908152602001600020600084815260200190815260200160002060006101000a81548160ff021916908315150217905550600160008381526020019081526020016000206002018181548110610a0f577f4e487b7100000000000000000000000000000000000000000000000000000000600052603260045260246000fd5b90600052602060002090600302016002016000815480929190610a3190611463565b91905055505050565b60025481565b600360009054906101000a900473ffffffffffffffffffffffffffffffffffffffff1681565b828054610a7290611431565b90600052602060002090601f016020900481019282610a945760008555610adb565b82601f10610aad57805160ff1916838001178555610adb565b82800160010185558215610adb579182015b82811115610ada578251825591602001919060010190610abf565b5b509050610ae89190610aec565b5090565b5b80821115610b05576000816000905550600101610aed565b5090565b6000610b1c610b178461128f565b61125e565b9050808382526020820190508260005b85811015610b5c5781358501610b428882610c2d565b845260208401935060208301925050600181019050610b2c565b5050509392505050565b6000610b79610b74846112bb565b61125e565b905082815260208101848484011115610b9157600080fd5b610b9c8482856113ef565b509392505050565b600081359050610bb38161154a565b92915050565b60008083601f840112610bcb57600080fd5b8235905067ffffffffffffffff811115610be457600080fd5b602083019150836020820283011115610bfc57600080fd5b9250929050565b600082601f830112610c1457600080fd5b8135610c24848260208601610b09565b91505092915050565b600082601f830112610c3e57600080fd5b8135610c4e848260208601610b66565b91505092915050565b600081359050610c6681611561565b92915050565b600060208284031215610c7e57600080fd5b6000610c8c84828501610ba4565b91505092915050565b60008060408385031215610ca857600080fd5b6000610cb685828601610ba4565b9250506020610cc785828601610c57565b9150509250929050565b60008060208385031215610ce457600080fd5b600083013567ffffffffffffffff811115610cfe57600080fd5b610d0a85828601610bb9565b92509250509250929050565b600080600060608486031215610d2b57600080fd5b600084013567ffffffffffffffff811115610d4557600080fd5b610d5186828701610c2d565b935050602084013567ffffffffffffffff811115610d6e57600080fd5b610d7a86828701610c03565b9250506040610d8b86828701610c57565b9150509250925092565b600060208284031215610da757600080fd5b6000610db584828501610c57565b91505092915050565b60008060408385031215610dd157600080fd5b6000610ddf85828601610c57565b9250506020610df085828601610c57565b9150509250929050565b6000610e06838361109f565b905092915050565b610e17816113a7565b82525050565b6000610e28826112fb565b610e32818561131e565b935083602082028501610e44856112eb565b8060005b85811015610e805784840389528151610e618582610dfa565b9450610e6c83611311565b925060208a01995050600181019050610e48565b50829750879550505050505092915050565b610e9b816113b9565b82525050565b6000610eac82611306565b610eb6818561132f565b9350610ec68185602086016113fe565b610ecf81611539565b840191505092915050565b6000610ee582611306565b610eef8185611340565b9350610eff8185602086016113fe565b610f0881611539565b840191505092915050565b6000610f20602383611340565b91507f63616e206f6e6c7920766f746520756e74696c2062616c6c6f7420656e64206460008301527f61746500000000000000000000000000000000000000000000000000000000006020830152604082019050919050565b6000610f86600a83611340565b91507f6f6e6c792061646d696e000000000000000000000000000000000000000000006000830152602082019050919050565b6000610fc6601883611340565b91507f766f7465722063616e206f6e6c7920766f7465206f6e636500000000000000006000830152602082019050919050565b6000611006601483611340565b91507f6f6e6c7920766f746572732063616e20766f74650000000000000000000000006000830152602082019050919050565b6000611046602e83611340565b91507f63616e6e6f7420736565207468652062616c6c6f7420726573756c742062656660008301527f6f72652062616c6c6f7420656e640000000000000000000000000000000000006020830152604082019050919050565b60006060830160008301516110b760008601826110ef565b50602083015184820360208601526110cf8282610ea1565b91505060408301516110e460408601826110ef565b508091505092915050565b6110f8816113e5565b82525050565b611107816113e5565b82525050565b60006020820190506111226000830184610e0e565b92915050565b600060208201905081810360008301526111428184610e1d565b905092915050565b600060208201905061115f6000830184610e92565b92915050565b6000602082019050818103600083015261117e81610f13565b9050919050565b6000602082019050818103600083015261119e81610f79565b9050919050565b600060208201905081810360008301526111be81610fb9565b9050919050565b600060208201905081810360008301526111de81610ff9565b9050919050565b600060208201905081810360008301526111fe81611039565b9050919050565b600060208201905061121a60008301846110fe565b92915050565b600060608201905061123560008301866110fe565b81810360208301526112478185610eda565b905061125660408301846110fe565b949350505050565b6000604051905081810181811067ffffffffffffffff821117156112855761128461150a565b5b8060405250919050565b600067ffffffffffffffff8211156112aa576112a961150a565b5b602082029050602081019050919050565b600067ffffffffffffffff8211156112d6576112d561150a565b5b601f19601f8301169050602081019050919050565b6000819050602082019050919050565b600081519050919050565b600081519050919050565b6000602082019050919050565b600082825260208201905092915050565b600082825260208201905092915050565b600082825260208201905092915050565b600061135c826113e5565b9150611367836113e5565b9250827fffffffffffffffffffffffffffffffffffffffffffffffffffffffffffffffff0382111561139c5761139b6114ac565b5b828201905092915050565b60006113b2826113c5565b9050919050565b60008115159050919050565b600073ffffffffffffffffffffffffffffffffffffffff82169050919050565b6000819050919050565b82818337600083830152505050565b60005b8381101561141c578082015181840152602081019050611401565b8381111561142b576000848401525b50505050565b6000600282049050600182168061144957607f821691505b6020821081141561145d5761145c6114db565b5b50919050565b600061146e826113e5565b91507fffffffffffffffffffffffffffffffffffffffffffffffffffffffffffffffff8214156114a1576114a06114ac565b5b600182019050919050565b7f4e487b7100000000000000000000000000000000000000000000000000000000600052601160045260246000fd5b7f4e487b7100000000000000000000000000000000000000000000000000000000600052602260045260246000fd5b7f4e487b7100000000000000000000000000000000000000000000000000000000600052604160045260246000fd5b6000601f19601f8301169050919050565b611553816113a7565b811461155e57600080fd5b50565b61156a816113e5565b811461157557600080fd5b5056fea264697066735822122048483fb6ff660bfa431623a9f1579cb5d44bca66f88b967a8b2bf33e961fc3de64736f6c63430008000033",
  "immutableReferences": {},
  "source": "pragma solidity ^0.8.0;\n\ncontract Voting {\n    mapping(address => bool) public voters;\n    struct Choice {\n        uint id;\n        string name;\n        uint votes;\n    }\n    struct Ballot {\n        uint id;\n        string name;\n        Choice[] choices;\n        uint end; // end timestamp of ballot\n    }\n    mapping(uint => Ballot) public ballots;\n    uint public nextBallotId;\n    address public admin;\n    mapping(address => mapping(uint => bool)) public votes; // nested mapping to keep track of who has already voted for what\n    \n    constructor() {\n        admin = msg.sender;\n    }\n    \n    function addVoters(address[] calldata _voters) external onlyAdmin() {\n        for (uint i = 0; i < _voters.length; i++) {\n            voters[_voters[i]] = true;\n        }\n    }\n    \n    function createBallot(\n        string memory name, \n        string[] memory _choices,\n        uint offset\n        ) public onlyAdmin() {\n            ballots[nextBallotId].id = nextBallotId;\n            ballots[nextBallotId].name = name;\n            ballots[nextBallotId].end = block.timestamp + offset;\n            for (uint i = 0; i < _choices.length; i++) {\n                ballots[nextBallotId].choices.push(Choice(i, _choices[i], 0));\n            }\n\n            nextBallotId++;\n        \n        }\n        \n    function vote(uint ballotId, uint choiceId) external {\n        require(voters[msg.sender] == true, \"only voters can vote\");\n        require(votes[msg.sender][ballotId] == false, \"voter can only vote once\");\n        require(block.timestamp < ballots[ballotId].end, \"can only vote until ballot end date\");\n        \n        votes[msg.sender][ballotId] = true;\n        ballots[ballotId].choices[choiceId].votes++;\n        \n    }\n    \n    function results(uint ballotId) \n        view \n        external\n        returns(Choice[] memory) {\n            require(block.timestamp >= ballots[ballotId].end, \"cannot see the ballot result before ballot end\");\n            return ballots[ballotId].choices;\n        }\n        \n    modifier onlyAdmin() {\n        require(msg.sender == admin, \"only admin\");\n        _;\n    }\n}",
  "sourcePath": "/Users/jacob/Documents/smart_contracts/voting/contracts/Voting.sol",
  "compiler": {
    "name": "solc",
    "version": "0.8.0+commit.c7dfd78e.Emscripten.clang"
  },
  "schemaVersion": "3.4.3",
  "updatedAt": "2021-10-20T22:26:00.086Z",
  "networkType": "ethereum",
  "devdoc": {
    "kind": "dev",
    "methods": {},
    "version": 1
  },
  "userdoc": {
    "kind": "user",
    "methods": {},
    "version": 1
  }
}